:020000040000FA
:020000000528D1
:040002000034003492
:06000A000313831607300A
:100010009C0000308F008430810005148514111479
:1000200091148801061000309F00831206140130DD
:100030009F0038209F1433201F202C201A289F183F
:100040001F281E088316A0001E08A1003B20831253
:100050009F140B1D1F2808008312013086060430F0
:100060009F063820080083120B110E308100080013
:10007000000000000800831288018316201A482817
:10008000A01A4C28201B5028A01B542883120800BB
:100090008312881783164028831208178316422874
:0E00A00083128816831644288312081608005F
:02400E00E4309C
:00000001FF
