:020000040000FA
:020000000528D1
:040002000034003492
:06000A00831603137030A1
:100010008F008316031307309C008316031391018E
:10002000831603130C30850083160313880183168F
:100030000313863081008312031385018801202871
:100040008312081B8813881E8817051D2A28851D02
:100050002D2820282030880630284030880639286E
:10006000051D302881010B11051D30280B1D34287A
:100070002028851D392881010B11851D39280B1D6C
:040080003D282028CF
:02400E00E4309C
:00000001FF
