:020000040000FA
:020000000528D1
:040002000034003492
:06000A00831603137130A0
:100010008F008312031787018316031307309C0098
:100020008316031305148316031308118316031391
:100030000130910083160313FF30920083120313E3
:1000400004309200831203130C309D0083160313B7
:1000500050309F008312031301309F00831203135B
:100060009F149F183128831203131E08031D402874
:10007000831203139B01831203130C309D002E285F
:10008000831203131E08831203139B0083160313AA
:100090001E08C03983120313A0000310A00C031024
:0E00A000200C30390C38831203139D002E28DB
:02400E00E4309C
:00000001FF
